{
  "contractName": "Buzzcoin",
  "abi": [
    {
      "inputs": [],
      "payable": false,
      "stateMutability": "nonpayable",
      "type": "constructor"
    },
    {
      "payable": true,
      "stateMutability": "payable",
      "type": "fallback"
    },
    {
      "constant": true,
      "inputs": [],
      "name": "mostSent",
      "outputs": [
        {
          "internalType": "uint256",
          "name": "",
          "type": "uint256"
        }
      ],
      "payable": false,
      "stateMutability": "view",
      "type": "function"
    },
    {
      "constant": true,
      "inputs": [],
      "name": "richest",
      "outputs": [
        {
          "internalType": "address",
          "name": "",
          "type": "address"
        }
      ],
      "payable": false,
      "stateMutability": "view",
      "type": "function"
    },
    {
      "constant": false,
      "inputs": [],
      "name": "donate",
      "outputs": [],
      "payable": true,
      "stateMutability": "payable",
      "type": "function"
    },
    {
      "constant": false,
      "inputs": [],
      "name": "problem1",
      "outputs": [],
      "payable": true,
      "stateMutability": "payable",
      "type": "function"
    },
    {
      "constant": false,
      "inputs": [
        {
          "internalType": "uint256",
          "name": "nonce",
          "type": "uint256"
        }
      ],
      "name": "problem2",
      "outputs": [],
      "payable": true,
      "stateMutability": "payable",
      "type": "function"
    },
    {
      "constant": false,
      "inputs": [],
      "name": "problem3",
      "outputs": [],
      "payable": true,
      "stateMutability": "payable",
      "type": "function"
    },
    {
      "constant": false,
      "inputs": [],
      "name": "problem4",
      "outputs": [],
      "payable": true,
      "stateMutability": "payable",
      "type": "function"
    },
    {
      "constant": false,
      "inputs": [
        {
          "internalType": "string",
          "name": "preimage",
          "type": "string"
        }
      ],
      "name": "problem5",
      "outputs": [],
      "payable": true,
      "stateMutability": "payable",
      "type": "function"
    },
    {
      "constant": false,
      "inputs": [],
      "name": "problem6",
      "outputs": [],
      "payable": true,
      "stateMutability": "payable",
      "type": "function"
    },
    {
      "constant": false,
      "inputs": [],
      "name": "problem7becomeRichest",
      "outputs": [
        {
          "internalType": "bool",
          "name": "",
          "type": "bool"
        }
      ],
      "payable": true,
      "stateMutability": "payable",
      "type": "function"
    },
    {
      "constant": false,
      "inputs": [],
      "name": "problem7withdraw",
      "outputs": [],
      "payable": false,
      "stateMutability": "nonpayable",
      "type": "function"
    }
  ],
  "bytecode": "0x608060405260026031557f5f7149b5602d1573f280de7f06ffb796570356ba87dfce4fb7a9d9e30656eb94603255600060335560006034553480156200004457600080fd5b5033603060006101000a81548173ffffffffffffffffffffffffffffffffffffffff021916908373ffffffffffffffffffffffffffffffffffffffff1602179055506040518061050001604052807371cac84e88d4c5e4cdaebfe21c178ac467b4f77d73ffffffffffffffffffffffffffffffffffffffff1673ffffffffffffffffffffffffffffffffffffffff168152602001732d9be36890a99c80f252e696194189d2f9c5f16073ffffffffffffffffffffffffffffffffffffffff1673ffffffffffffffffffffffffffffffffffffffff1681526020017353caee6a3f6c528a419367108766d1fc1a5a21b773ffffffffffffffffffffffffffffffffffffffff1673ffffffffffffffffffffffffffffffffffffffff16815260200173cb1afdc8ed80fe28e6295baba027d49c45fce46573ffffffffffffffffffffffffffffffffffffffff1673ffffffffffffffffffffffffffffffffffffffff168152602001733e6f6f38b3ab719a8749ce77c1481fe77c5d912373ffffffffffffffffffffffffffffffffffffffff1673ffffffffffffffffffffffffffffffffffffffff168152602001739f99754746cb869e57a1b50868d6c684feee7a0973ffffffffffffffffffffffffffffffffffffffff1673ffffffffffffffffffffffffffffffffffffffff16815260200173bc8f2e33b23536ee7f327bb1f62c8990e894679d73ffffffffffffffffffffffffffffffffffffffff1673ffffffffffffffffffffffffffffffffffffffff168152602001738c56907fd9a8289d05222d67b31bcf9bee4c332273ffffffffffffffffffffffffffffffffffffffff1673ffffffffffffffffffffffffffffffffffffffff1681526020017362971627e947e3b4403f489e864bc47a445eaa9b73ffffffffffffffffffffffffffffffffffffffff1673ffffffffffffffffffffffffffffffffffffffff16815260200173f1276e9ce3a58b2292248e184945b818f84c3d3373ffffffffffffffffffffffffffffffffffffffff1673ffffffffffffffffffffffffffffffffffffffff168152602001736d4c70a768b4f6947387179a69f27d950979479373ffffffffffffffffffffffffffffffffffffffff1673ffffffffffffffffffffffffffffffffffffffff1681526020017304481c7eefc711610e8c8b7f5c633fe0e3f90b3b73ffffffffffffffffffffffffffffffffffffffff1673ffffffffffffffffffffffffffffffffffffffff16815260200173087c164777e66e696262e8802ade75e00060e7c373ffffffffffffffffffffffffffffffffffffffff1673ffffffffffffffffffffffffffffffffffffffff1681526020017380e8fda0558340522741af206d272cc3bbd1896f73ffffffffffffffffffffffffffffffffffffffff1673ffffffffffffffffffffffffffffffffffffffff16815260200173b308bfa0af2e107eb160a501cfa3c0cf1d0ebb8673ffffffffffffffffffffffffffffffffffffffff1673ffffffffffffffffffffffffffffffffffffffff168152602001733727197874eece1ba6d754cdcc2e387016a213a073ffffffffffffffffffffffffffffffffffffffff1673ffffffffffffffffffffffffffffffffffffffff16815260200173ad883df7ed09c3adff080db06671fa219411f1f173ffffffffffffffffffffffffffffffffffffffff1673ffffffffffffffffffffffffffffffffffffffff16815260200173639543a00d691719c05be1e973fca02083c0d71173ffffffffffffffffffffffffffffffffffffffff1673ffffffffffffffffffffffffffffffffffffffff168152602001730208079cd52b866040b89ab5635984ad131316a373ffffffffffffffffffffffffffffffffffffffff1673ffffffffffffffffffffffffffffffffffffffff1681526020017302af6680e6eb75b6044dae89a62bc2a24761d5b673ffffffffffffffffffffffffffffffffffffffff1673ffffffffffffffffffffffffffffffffffffffff16815260200173baf0d1e75f00787143008fd8aac63004ce427a7f73ffffffffffffffffffffffffffffffffffffffff1673ffffffffffffffffffffffffffffffffffffffff16815260200173a2750d199dd264aeba9e7806a0b877e4516e2c8f73ffffffffffffffffffffffffffffffffffffffff1673ffffffffffffffffffffffffffffffffffffffff16815260200173df49eb4d5323a02803d1b3e50b6b0fa1fe72141f73ffffffffffffffffffffffffffffffffffffffff1673ffffffffffffffffffffffffffffffffffffffff16815260200173da329c9e5c216cab3284f810c8cb4d9823adea9a73ffffffffffffffffffffffffffffffffffffffff1673ffffffffffffffffffffffffffffffffffffffff16815260200173e04ab27880ae69835065da476c3e0c7a0b23786873ffffffffffffffffffffffffffffffffffffffff1673ffffffffffffffffffffffffffffffffffffffff16815260200173500b55d22cda3cad0274790eaf4ae0597973cea573ffffffffffffffffffffffffffffffffffffffff1673ffffffffffffffffffffffffffffffffffffffff1681526020017319aa426cb6861d6c6de596212c7f3e29c950bdd473ffffffffffffffffffffffffffffffffffffffff1673ffffffffffffffffffffffffffffffffffffffff168152602001738c35947ac87780e8c0e5095ad352c1f57d47f3c973ffffffffffffffffffffffffffffffffffffffff1673ffffffffffffffffffffffffffffffffffffffff16815260200173fdc5413a7cc1b4f72a783f20e1985672b3a5307673ffffffffffffffffffffffffffffffffffffffff1673ffffffffffffffffffffffffffffffffffffffff168152602001739c11002aaeb94147a4844c1a3ad36d59ac0625dd73ffffffffffffffffffffffffffffffffffffffff1673ffffffffffffffffffffffffffffffffffffffff1681526020017373daa1ef3ef50d935c0850456879cbdeac7314da73ffffffffffffffffffffffffffffffffffffffff1673ffffffffffffffffffffffffffffffffffffffff1681526020017373daa1ef3ef50d935c0850456879cbdeac7314da73ffffffffffffffffffffffffffffffffffffffff1673ffffffffffffffffffffffffffffffffffffffff16815260200173a7177777f7563fab5c8e4c98a4fb7a21416be12d73ffffffffffffffffffffffffffffffffffffffff1673ffffffffffffffffffffffffffffffffffffffff168152602001733eaeafdea4e2c3a47f6d44ad2ab86cfc426a540273ffffffffffffffffffffffffffffffffffffffff1673ffffffffffffffffffffffffffffffffffffffff16815260200173f867f9396081cf367e6ce70e69c4ecc3f067bc8373ffffffffffffffffffffffffffffffffffffffff1673ffffffffffffffffffffffffffffffffffffffff168152602001731a8da1e8a09a79052221346759bf0a94f02607e573ffffffffffffffffffffffffffffffffffffffff1673ffffffffffffffffffffffffffffffffffffffff16815260200173a30e162d0108b1699f5ba60c1bd98557e96e66b373ffffffffffffffffffffffffffffffffffffffff1673ffffffffffffffffffffffffffffffffffffffff16815260200173f6f53aca1a2c0b017beb7bd80dab169d8cdd5e5b73ffffffffffffffffffffffffffffffffffffffff1673ffffffffffffffffffffffffffffffffffffffff1681526020017382a8723ce3fcdde148e266be83ff02b5b087e1fd73ffffffffffffffffffffffffffffffffffffffff1673ffffffffffffffffffffffffffffffffffffffff168152602001732c3cde3d87272c8ba94135c73f334377bc6e66e173ffffffffffffffffffffffffffffffffffffffff1673ffffffffffffffffffffffffffffffffffffffff16815250600890602862000b9292919062000c8a565b5060008090505b602881101562000c38576001600760006008846028811062000bb757fe5b0160009054906101000a900473ffffffffffffffffffffffffffffffffffffffff1673ffffffffffffffffffffffffffffffffffffffff1673ffffffffffffffffffffffffffffffffffffffff16815260200190815260200160002060006101000a81548160ff021916908315150217905550808060010191505062000b99565b503361010460006101000a81548173ffffffffffffffffffffffffffffffffffffffff021916908373ffffffffffffffffffffffffffffffffffffffff16021790555060006101058190555062000d52565b826028810192821562000cf9579160200282015b8281111562000cf85782518260006101000a81548173ffffffffffffffffffffffffffffffffffffffff021916908373ffffffffffffffffffffffffffffffffffffffff1602179055509160200191906001019062000c9e565b5b50905062000d08919062000d0c565b5090565b62000d4f91905b8082111562000d4b57600081816101000a81549073ffffffffffffffffffffffffffffffffffffffff02191690555060010162000d13565b5090565b90565b6111898062000d626000396000f3fe60806040526004361061009c5760003560e01c80636886bf1c116100645780636886bf1c1461014e57806368fd21d1146101795780639e0d668914610183578063d68e9b16146101a5578063e036cd2214610260578063ed88c68e1461026a5761009c565b806302e26c381461009e5780632b561808146100f557806335ea8270146100ff5780633ac44d411461010957806362d30b6414610137575b005b3480156100aa57600080fd5b506100b3610274565b604051808273ffffffffffffffffffffffffffffffffffffffff1673ffffffffffffffffffffffffffffffffffffffff16815260200191505060405180910390f35b6100fd61029b565b005b610107610621565b005b6101356004803603602081101561011f57600080fd5b8101908080359060200190929190505050610733565b005b34801561014357600080fd5b5061014c6109a2565b005b34801561015a57600080fd5b50610163610acf565b6040518082815260200191505060405180910390f35b610181610ad6565b005b61018b610c24565b604051808215151515815260200191505060405180910390f35b61025e600480360360208110156101bb57600080fd5b81019080803590602001906401000000008111156101d857600080fd5b8201836020820111156101ea57600080fd5b8035906020019184600183028401116401000000008311171561020c57600080fd5b91908080601f016020809104026020016040519081016040528093929190818152602001838380828437600081840152601f19601f820116905080830192505050505050509192919290505050610cfd565b005b610268610f83565b005b610272611152565b005b61010460009054906101000a900473ffffffffffffffffffffffffffffffffffffffff1681565b6000670de0b6b3a764000034816102ae57fe5b061415806102bc5750600034145b806102cf575068056bc75e2d6310000034115b156102d957600080fd5b6000670de0b6b3a764000034816102ec57fe5b04905060008090505b6005811015610372573373ffffffffffffffffffffffffffffffffffffffff1660ff826005811061032257fe5b0160009054906101000a900473ffffffffffffffffffffffffffffffffffffffff1673ffffffffffffffffffffffffffffffffffffffff16141561036557600080fd5b80806001019150506102f5565b503360ff6033546005811061038357fe5b0160006101000a81548173ffffffffffffffffffffffffffffffffffffffff021916908373ffffffffffffffffffffffffffffffffffffffff160217905550603360008154809291906001019190505550603581606581106103e157fe5b016000815480929190600101919050555033609a826065811061040057fe5b0160006101000a81548173ffffffffffffffffffffffffffffffffffffffff021916908373ffffffffffffffffffffffffffffffffffffffff16021790555034603460008282540192505081905550600560335414156105c657600080905060008090505b60658110156105655760016035826065811061047d57fe5b015414801561048a575081155b1561051557609a816065811061049c57fe5b0160009054906101000a900473ffffffffffffffffffffffffffffffffffffffff1673ffffffffffffffffffffffffffffffffffffffff166108fc671bc16d674ec80000603454019081150290604051600060405180830381858888f1935050505015801561050f573d6000803e3d6000fd5b50600191505b6035816065811061052257fe5b0160009055609a816065811061053457fe5b0160006101000a81549073ffffffffffffffffffffffffffffffffffffffff02191690558080600101915050610465565b506000603381905550600060348190555060008090505b60058110156105c35760ff816005811061059257fe5b0160006101000a81549073ffffffffffffffffffffffffffffffffffffffff0219169055808060010191505061057c565b50505b6001600560003373ffffffffffffffffffffffffffffffffffffffff1673ffffffffffffffffffffffffffffffffffffffff16815260200190815260200160002060006101000a81548160ff02191690831515021790555050565b600360003373ffffffffffffffffffffffffffffffffffffffff1673ffffffffffffffffffffffffffffffffffffffff16815260200190815260200160002060009054906101000a900460ff161561067557fe5b600760003373ffffffffffffffffffffffffffffffffffffffff1673ffffffffffffffffffffffffffffffffffffffff16815260200190815260200160002060009054906101000a900460ff166106c857fe5b670de0b6b3a764000034146106d957fe5b6001600360003373ffffffffffffffffffffffffffffffffffffffff1673ffffffffffffffffffffffffffffffffffffffff16815260200190815260200160002060006101000a81548160ff021916908315150217905550565b600160003373ffffffffffffffffffffffffffffffffffffffff1673ffffffffffffffffffffffffffffffffffffffff16815260200190815260200160002060009054906101000a900460ff161561078757fe5b600760003373ffffffffffffffffffffffffffffffffffffffff1673ffffffffffffffffffffffffffffffffffffffff16815260200190815260200160002060009054906101000a900460ff166107da57fe5b600060028233604051602001808381526020018273ffffffffffffffffffffffffffffffffffffffff1673ffffffffffffffffffffffffffffffffffffffff168152602001925050506040516020818303038152906040526040518082805190602001908083835b602083106108655780518252602082019150602081019050602083039250610842565b6001836020036101000a038019825116818451168082178552505050505050905001915050602060405180830381855afa1580156108a7573d6000803e3d6000fd5b5050506040513d60208110156108bc57600080fd5b810190808051906020019092919050505060001c90506002603160008282540292505081905550600060315482816108f057fe5b06141561099e5760018060003373ffffffffffffffffffffffffffffffffffffffff1673ffffffffffffffffffffffffffffffffffffffff16815260200190815260200160002060006101000a81548160ff0219169083151502179055503373ffffffffffffffffffffffffffffffffffffffff166108fc674563918244f400009081150290604051600060405180830381858888f1935050505015801561099c573d6000803e3d6000fd5b505b5050565b600061010660003373ffffffffffffffffffffffffffffffffffffffff1673ffffffffffffffffffffffffffffffffffffffff168152602001908152602001600020549050600061010660003373ffffffffffffffffffffffffffffffffffffffff1673ffffffffffffffffffffffffffffffffffffffff168152602001908152602001600020819055503373ffffffffffffffffffffffffffffffffffffffff166108fc829081150290604051600060405180830381858888f19350505050158015610a73573d6000803e3d6000fd5b506001600660003373ffffffffffffffffffffffffffffffffffffffff1673ffffffffffffffffffffffffffffffffffffffff16815260200190815260200160002060006101000a81548160ff02191690831515021790555050565b6101055481565b6000803373ffffffffffffffffffffffffffffffffffffffff1673ffffffffffffffffffffffffffffffffffffffff16815260200190815260200160002060009054906101000a900460ff1615610b2957fe5b600760003373ffffffffffffffffffffffffffffffffffffffff1673ffffffffffffffffffffffffffffffffffffffff16815260200190815260200160002060009054906101000a900460ff16610b7c57fe5b3373ffffffffffffffffffffffffffffffffffffffff166108fc670de0b6b3a76400009081150290604051600060405180830381858888f19350505050158015610bca573d6000803e3d6000fd5b5060016000803373ffffffffffffffffffffffffffffffffffffffff1673ffffffffffffffffffffffffffffffffffffffff16815260200190815260200160002060006101000a81548160ff021916908315150217905550565b600061010554341115610cf55734610106600061010460009054906101000a900473ffffffffffffffffffffffffffffffffffffffff1673ffffffffffffffffffffffffffffffffffffffff1673ffffffffffffffffffffffffffffffffffffffff168152602001908152602001600020600082825401925050819055503361010460006101000a81548173ffffffffffffffffffffffffffffffffffffffff021916908373ffffffffffffffffffffffffffffffffffffffff160217905550346101058190555060019050610cfa565b600090505b90565b600460003373ffffffffffffffffffffffffffffffffffffffff1673ffffffffffffffffffffffffffffffffffffffff16815260200190815260200160002060009054906101000a900460ff1615610d5157fe5b600760003373ffffffffffffffffffffffffffffffffffffffff1673ffffffffffffffffffffffffffffffffffffffff16815260200190815260200160002060009054906101000a900460ff16610da457fe5b60006002826040516020018080602001828103825283818151815260200191508051906020019080838360005b83811015610dec578082015181840152602081019050610dd1565b50505050905090810190601f168015610e195780820380516001836020036101000a031916815260200191505b50925050506040516020818303038152906040526040518082805190602001908083835b60208310610e605780518252602082019150602081019050602083039250610e3d565b6001836020036101000a038019825116818451168082178552505050505050905001915050602060405180830381855afa158015610ea2573d6000803e3d6000fd5b5050506040513d6020811015610eb757600080fd5b810190808051906020019092919050505060001c90506032548114610ed857fe5b3373ffffffffffffffffffffffffffffffffffffffff166108fc6729a2241af62c00009081150290604051600060405180830381858888f19350505050158015610f26573d6000803e3d6000fd5b506001600460003373ffffffffffffffffffffffffffffffffffffffff1673ffffffffffffffffffffffffffffffffffffffff16815260200190815260200160002060006101000a81548160ff0219169083151502179055505050565b600260003373ffffffffffffffffffffffffffffffffffffffff1673ffffffffffffffffffffffffffffffffffffffff16815260200190815260200160002060009054906101000a900460ff1615610fd757fe5b600760003373ffffffffffffffffffffffffffffffffffffffff1673ffffffffffffffffffffffffffffffffffffffff16815260200190815260200160002060009054906101000a900460ff1661102a57fe5b60006006334342604051602001808473ffffffffffffffffffffffffffffffffffffffff1673ffffffffffffffffffffffffffffffffffffffff16815260200183815260200182815260200193505050506040516020818303038152906040528051906020012060001c8161109b57fe5b069050600081141561114f576001600260003373ffffffffffffffffffffffffffffffffffffffff1673ffffffffffffffffffffffffffffffffffffffff16815260200190815260200160002060006101000a81548160ff0219169083151502179055503373ffffffffffffffffffffffffffffffffffffffff166108fc670de0b6b3a76400009081150290604051600060405180830381858888f1935050505015801561114d573d6000803e3d6000fd5b505b50565b56fea265627a7a7231582016ddca7c1da1291dd76530eae706f45969676de0cf5bd763127ea31afe97517264736f6c63430005100032",
  "source": "pragma solidity ^0.5.0;\n\ncontract Buzzcoin {\n\n    mapping (address => bool) private p1;\n    mapping (address => bool) private p2;\n    mapping (address => bool) private p3;\n    mapping (address => bool) private p4;\n    mapping (address => bool) private p5;\n    mapping (address => bool) private p6;\n    mapping (address => bool) private p7;\n\n    mapping (address => bool) private perm;\n    address[40] private users;\n    address owner;\n\n    function () external payable {}\n    function donate() external payable {}\n\n\n    //constructor\n    constructor() public{\n        owner = msg.sender;\n        users = [0x71caC84e88D4C5E4cdAEBfe21C178Ac467B4f77d, 0x2d9be36890a99C80F252E696194189D2F9c5f160, 0x53cAee6a3f6c528A419367108766d1Fc1A5a21B7, 0xCb1aFDC8ed80FE28E6295BABa027d49C45FcE465, 0x3E6f6f38B3AB719A8749Ce77c1481FE77C5d9123, 0x9F99754746cb869E57a1b50868d6c684feee7A09, 0xbC8f2E33B23536Ee7F327bB1F62C8990E894679d, 0x8C56907Fd9a8289D05222d67b31bCF9BeE4c3322, 0x62971627e947E3b4403f489e864BC47a445EAa9b, 0xF1276e9CE3A58B2292248e184945B818f84C3D33, 0x6D4C70a768B4f6947387179A69F27d9509794793, 0x04481C7EeFc711610E8C8b7f5C633fE0e3f90b3b, 0x087c164777E66E696262E8802aDe75E00060E7C3, 0x80E8FDA0558340522741af206d272Cc3bBD1896F, 0xB308bfa0aF2e107EB160a501CfA3c0CF1d0Ebb86, 0x3727197874eECe1ba6D754CDCC2E387016A213A0, 0xAD883DF7Ed09c3ADFF080db06671fa219411F1f1, 0x639543a00D691719c05be1E973FCa02083c0d711, 0x0208079Cd52b866040b89Ab5635984Ad131316A3, 0x02aF6680e6eb75b6044dAE89a62bc2a24761d5B6, 0xBaF0d1E75F00787143008fd8aAc63004cE427a7f, 0xA2750D199dd264AEBa9E7806a0b877e4516e2c8F, 0xdf49Eb4D5323a02803D1B3e50B6B0fa1fE72141F, 0xda329c9E5C216CAB3284F810C8cb4d9823aDEA9a, 0xe04Ab27880Ae69835065Da476C3e0C7A0B237868, 0x500B55D22CDa3cAD0274790Eaf4ae0597973cEA5, 0x19aa426cB6861d6c6DE596212c7F3E29C950BDd4, 0x8c35947aC87780e8C0E5095AD352c1f57d47F3C9, 0xfdC5413A7CC1b4F72a783F20E1985672b3A53076, 0x9C11002AaEb94147a4844C1A3ad36D59aC0625dd, 0x73Daa1eF3EF50D935c0850456879cbdeAC7314da, 0x73Daa1eF3EF50D935c0850456879cbdeAC7314da, 0xa7177777f7563Fab5C8E4c98a4fB7A21416be12d, 0x3EaEAfdea4e2c3A47f6d44aD2aB86CfC426A5402, 0xF867F9396081CF367e6CE70E69C4eCC3F067bc83, 0x1a8dA1e8A09A79052221346759BF0a94f02607E5, 0xa30e162D0108B1699f5Ba60C1Bd98557e96E66b3, 0xf6F53Aca1A2C0B017BEb7Bd80DAB169D8CDd5e5B, 0x82a8723CE3FcdDE148e266BE83ff02b5B087E1Fd, 0x2C3cDe3d87272C8ba94135C73f334377BC6e66e1];\n        for(uint i = 0; i < 40; i++){\n            perm[users[i]] = true;\n        }\n\n        //problem 7 initialization\n        richest = msg.sender;\n        mostSent = 0;\n    }\n\n    function problem1() external payable {\n        assert(!p1[msg.sender]);\n        assert(perm[msg.sender]);\n        msg.sender.transfer(1 ether);\n        p1[msg.sender] = true;\n\n    }\n    uint mask = 2;\n    function problem2(uint nonce) external payable {\n        assert(!p2[msg.sender]);\n        assert(perm[msg.sender]);\n        uint hash = uint(sha256(abi.encode(nonce, msg.sender)));\n        mask *= 2;\n        if (hash % mask == 0){\n            p2[msg.sender] = true;\n            msg.sender.transfer(5 ether);\n        }\n    }\n\n    function problem3() external payable {\n        assert(!p3[msg.sender]);\n        assert(perm[msg.sender]);\n        uint dice = uint(keccak256(abi.encode(msg.sender, block.number, now))) % 6;\n        if(dice == 0) {\n            p3[msg.sender] = true;\n            msg.sender.transfer(1 ether);\n        }\n    }\n\n    function problem4() external payable {\n        assert(!p4[msg.sender]);\n        assert(perm[msg.sender]);\n        assert(msg.value == 1 ether);\n        p4[msg.sender] = true;\n    }\n\n    uint256 doggy = 43169883051092453190094141851069219482566562937660943787317544241827140791188;\n    function problem5(string memory preimage) public payable {\n        assert(!p5[msg.sender]);\n        assert(perm[msg.sender]);\n        uint hash = uint(sha256(abi.encode(preimage)));\n        assert(hash == doggy);\n        msg.sender.transfer(3 ether);\n        p5[msg.sender] = true;\n    }\n\n\n    //mayor\n\n    uint256 private plays = 0;\n    uint256 private total = 0;\n    uint256[101] private counter;\n    address payable[101] private identity;\n    address payable[5] private already_played;\n\n    function problem6() external payable {\n        if(msg.value % (1 ether) != 0 || msg.value == 0 || msg.value > (100 ether)){\n            revert();\n        }\n\n        uint256 val_in_eth = msg.value / (1 ether);\n\n        // if already played - revert\n        for (uint i=0; i<5; i++) {\n            if (already_played[i] == msg.sender) {\n                revert();\n            }\n        }\n        already_played[plays] = msg.sender;\n\n        plays++;\n        counter[val_in_eth]++;\n        identity[val_in_eth] = msg.sender;\n        total += msg.value;\n\n        if (plays == 5) {\n            bool payed = false;\n            for (uint i = 0; i < 101; i++) {\n                if (counter[i] == 1 && !payed) {\n                    identity[i].transfer(total + (2 ether));\n                    payed = true;\n                }\n                delete counter[i];\n                delete identity[i];\n            }\n            plays = 0;\n            total = 0;\n\n            for (uint i=0; i<5; i++)\n                delete already_played[i];\n        }\n\n        p6[msg.sender] = true;\n    }\n\n    //king of the hill\n\n\n    // The goal is to send the most money to the contract in order to become the\n    // “richest”, inspired by King of the Ether. In the following contract, if\n    // you are usurped as the richest, you will receive the funds of the person\n    // who has gone on to become the new richest.\n    // https://solidity.readthedocs.io/en/v0.4.24/common-patterns.html\n    address public richest;\n    uint public mostSent;\n\n    mapping (address => uint) pendingWithdrawals;\n\n    function problem7becomeRichest() public payable returns (bool) {\n        if (msg.value > mostSent) {\n            pendingWithdrawals[richest] += msg.value;\n            richest = msg.sender;\n            mostSent = msg.value;\n            return true;\n        } else {\n            return false;\n        }\n        p7[msg.sender] = true;\n    }\n\n    function problem7withdraw() public {\n        uint amount = pendingWithdrawals[msg.sender];\n        // Remember to zero the pending refund before\n        // sending to prevent re-entrancy attacks\n        pendingWithdrawals[msg.sender] = 0;\n        msg.sender.transfer(amount);\n        p7[msg.sender] = true;\n    }\n}\n",
  "sourcePath": "/home/saccharide/git/playing-with-truffle/contracts/Buzzcoin.sol",
  "compiler": {
    "name": "solc",
    "version": "0.5.16+commit.9c3226ce.Emscripten.clang"
  },
  "schemaVersion": "3.0.23",
  "updatedAt": "2020-05-02T02:05:53.572Z",
  "devdoc": {
    "methods": {}
  },
  "userdoc": {
    "methods": {}
  }
}