{
  "contractName": "Test",
  "abi": [
    {
      "constant": false,
      "inputs": [
        {
          "internalType": "uint256",
          "name": "nonce",
          "type": "uint256"
        }
      ],
      "name": "problem2",
      "outputs": [
        {
          "internalType": "bool",
          "name": "",
          "type": "bool"
        }
      ],
      "payable": false,
      "stateMutability": "nonpayable",
      "type": "function"
    },
    {
      "constant": false,
      "inputs": [],
      "name": "testp2",
      "outputs": [
        {
          "internalType": "uint256",
          "name": "",
          "type": "uint256"
        }
      ],
      "payable": false,
      "stateMutability": "nonpayable",
      "type": "function"
    }
  ],
  "bytecode": "0x6080604052600260005534801561001557600080fd5b50610263806100256000396000f3fe608060405234801561001057600080fd5b50600436106100365760003560e01c80633ac44d411461003b57806384e893ea14610081575b600080fd5b6100676004803603602081101561005157600080fd5b810190808035906020019092919050505061009f565b604051808215151515815260200191505060405180910390f35b6100896101ea565b6040518082815260200191505060405180910390f35b60008060009050600073a7177777f7563fab5c8e4c98a4fb7a21416be12d9050600060028583604051602001808381526020018273ffffffffffffffffffffffffffffffffffffffff1673ffffffffffffffffffffffffffffffffffffffff168152602001925050506040516020818303038152906040526040518082805190602001908083835b6020831061014a5780518252602082019150602081019050602083039250610127565b6001836020036101000a038019825116818451168082178552505050505050905001915050602060405180830381855afa15801561018c573d6000803e3d6000fd5b5050506040513d60208110156101a157600080fd5b810190808051906020019092919050505060001c9050600260008082825402925050819055506000600482816101d357fe5b0614156101df57600192505b829350505050919050565b6000806000905060006102bc90505b6103848110156102265761020c8161009f565b1561021957809150610226565b80806001019150506101f9565b50809150509056fea265627a7a723158203ca9b10e8a44c22c23ff5cad6ca302e2132e3bf6ba786e1d9bda6af9c25a932a64736f6c63430005100032",
  "source": "pragma solidity ^0.5.0;\n\ncontract Test{\n\n\n    uint mask = 2;\n    \n    function problem2(uint nonce) public returns (bool){\n        bool result = false;\n        //address _address = parseAddr(\"0xa7177777f7563fab5c8e4c98a4fb7a21416be12d\");\n        address _address = 0xa7177777f7563Fab5C8E4c98a4fB7A21416be12d;\n\n        uint hash = uint(sha256(abi.encode(nonce, _address)));\n        \n        mask *= 2;\n        if (hash % 4 == 0){\n            result = true;\n        }\n        return result;\n    }\n    \n    function testp2() public returns (uint) {\n        uint ans = 0;\n        for(uint i = 700; i < 900; i++) {\n            if (problem2(i)) {\n                ans = i;\n                break;\n            }\n        }\n        return ans;\n    }\n}\n",
  "sourcePath": "/home/saccharide/git/playing-with-truffle/contracts/Test.sol",
  "compiler": {
    "name": "solc",
    "version": "0.5.16+commit.9c3226ce.Emscripten.clang"
  },
  "schemaVersion": "3.0.23",
  "updatedAt": "2020-04-02T23:48:21.851Z",
  "networkType": "ethereum",
  "devdoc": {
    "methods": {}
  },
  "userdoc": {
    "methods": {}
  }
}