{
  "contractName": "VotingContract",
  "abi": [
    {
      "inputs": [
        {
          "internalType": "bytes32[]",
          "name": "_candidateList",
          "type": "bytes32[]"
        }
      ],
      "payable": false,
      "stateMutability": "nonpayable",
      "type": "constructor"
    },
    {
      "constant": true,
      "inputs": [],
      "name": "creator",
      "outputs": [
        {
          "internalType": "address",
          "name": "",
          "type": "address"
        }
      ],
      "payable": false,
      "stateMutability": "view",
      "type": "function"
    },
    {
      "constant": true,
      "inputs": [],
      "name": "max_vote",
      "outputs": [
        {
          "internalType": "uint256",
          "name": "",
          "type": "uint256"
        }
      ],
      "payable": false,
      "stateMutability": "view",
      "type": "function"
    },
    {
      "constant": true,
      "inputs": [],
      "name": "winner",
      "outputs": [
        {
          "internalType": "string",
          "name": "",
          "type": "string"
        }
      ],
      "payable": false,
      "stateMutability": "view",
      "type": "function"
    },
    {
      "constant": true,
      "inputs": [
        {
          "internalType": "bytes32",
          "name": "str",
          "type": "bytes32"
        }
      ],
      "name": "bytes32ToString",
      "outputs": [
        {
          "internalType": "string",
          "name": "",
          "type": "string"
        }
      ],
      "payable": false,
      "stateMutability": "pure",
      "type": "function"
    },
    {
      "constant": false,
      "inputs": [
        {
          "internalType": "bytes32",
          "name": "_candidate",
          "type": "bytes32"
        }
      ],
      "name": "vote",
      "outputs": [],
      "payable": false,
      "stateMutability": "nonpayable",
      "type": "function"
    },
    {
      "constant": false,
      "inputs": [
        {
          "internalType": "string",
          "name": "_candidate",
          "type": "string"
        }
      ],
      "name": "vote",
      "outputs": [],
      "payable": false,
      "stateMutability": "nonpayable",
      "type": "function"
    },
    {
      "constant": false,
      "inputs": [],
      "name": "closeVote",
      "outputs": [],
      "payable": false,
      "stateMutability": "nonpayable",
      "type": "function"
    },
    {
      "constant": false,
      "inputs": [],
      "name": "reopenVote",
      "outputs": [],
      "payable": false,
      "stateMutability": "nonpayable",
      "type": "function"
    },
    {
      "constant": true,
      "inputs": [],
      "name": "getWinner",
      "outputs": [
        {
          "internalType": "string",
          "name": "",
          "type": "string"
        },
        {
          "internalType": "uint256",
          "name": "",
          "type": "uint256"
        }
      ],
      "payable": false,
      "stateMutability": "view",
      "type": "function"
    }
  ],
  "bytecode": "0x60806040523480156200001157600080fd5b50604051620012ce380380620012ce833981810160405260208110156200003757600080fd5b81019080805160405193929190846401000000008211156200005857600080fd5b838201915060208201858111156200006f57600080fd5b82518660208202830111640100000000821117156200008d57600080fd5b8083526020830192505050908051906020019060200280838360005b83811015620000c6578082015181840152602081019050620000a9565b50505050905001604052505050336000806101000a81548173ffffffffffffffffffffffffffffffffffffffff021916908373ffffffffffffffffffffffffffffffffffffffff16021790555060008090505b81518110156200020a5760606200014a8383815181106200013657fe5b60200260200101516200021260201b60201c565b905060006003826040518082805190602001908083835b6020831062000186578051825260208201915060208101905060208303925062000161565b6001836020036101000a0380198251168184511680821785525050505050509050019150509081526020016040518091039020819055508060026000858581518110620001cf57fe5b602002602001015181526020019081526020016000209080519060200190620001fa929190620003af565b5050808060010191505062000119565b50506200045e565b60608060206040519080825280601f01601f1916602001820160405280156200024a5781602001600182028038833980820191505090505b509050600080905060008090505b6020811015620002f85760008160080260020a8660001c0260001b9050600060f81b817effffffffffffffffffffffffffffffffffffffffffffffffffffffffffffff191614620002e95780848481518110620002b157fe5b60200101907effffffffffffffffffffffffffffffffffffffffffffffffffffffffffffff1916908160001a90535082806001019350505b50808060010191505062000258565b506060816040519080825280601f01601f1916602001820160405280156200032f5781602001600182028038833980820191505090505b50905060008090505b82811015620003a3578381815181106200034e57fe5b602001015160f81c60f81b8282815181106200036657fe5b60200101907effffffffffffffffffffffffffffffffffffffffffffffffffffffffffffff1916908160001a905350808060010191505062000338565b50809350505050919050565b828054600181600116156101000203166002900490600052602060002090601f016020900481019282601f10620003f257805160ff191683800117855562000423565b8280016001018555821562000423579182015b828111156200042257825182559160200191906001019062000405565b5b50905062000432919062000436565b5090565b6200045b91905b80821115620004575760008160009055506001016200043d565b5090565b90565b610e60806200046e6000396000f3fe608060405234801561001057600080fd5b50600436106100935760003560e01c8063910349ff11610066578063910349ff146101945780639201de551461019e578063a69beaba14610245578063dfbf53ae14610273578063fc36e15b146102f657610093565b806302d05d3f14610098578063329d3346146100e2578063602be06e146100ec5780638e7ea5b21461010a575b600080fd5b6100a06103b1565b604051808273ffffffffffffffffffffffffffffffffffffffff1673ffffffffffffffffffffffffffffffffffffffff16815260200191505060405180910390f35b6100ea6103d6565b005b6100f46104b5565b6040518082815260200191505060405180910390f35b6101126104bb565b6040518080602001838152602001828103825284818151815260200191508051906020019080838360005b8381101561015857808201518184015260208101905061013d565b50505050905090810190601f1680156101855780820380516001836020036101000a031916815260200191505b50935050505060405180910390f35b61019c6105ea565b005b6101ca600480360360208110156101b457600080fd5b81019080803590602001909291905050506106c9565b6040518080602001828103825283818151815260200191508051906020019080838360005b8381101561020a5780820151818401526020810190506101ef565b50505050905090810190601f1680156102375780820380516001836020036101000a031916815260200191505b509250505060405180910390f35b6102716004803603602081101561025b57600080fd5b810190808035906020019092919050505061085c565b005b61027b610aa9565b6040518080602001828103825283818151815260200191508051906020019080838360005b838110156102bb5780820151818401526020810190506102a0565b50505050905090810190601f1680156102e85780820380516001836020036101000a031916815260200191505b509250505060405180910390f35b6103af6004803603602081101561030c57600080fd5b810190808035906020019064010000000081111561032957600080fd5b82018360208201111561033b57600080fd5b8035906020019184600183028401116401000000008311171561035d57600080fd5b91908080601f016020809104026020016040519081016040528093929190818152602001838380828437600081840152601f19601f820116905080830192505050505050509192919290505050610b47565b005b6000809054906101000a900473ffffffffffffffffffffffffffffffffffffffff1681565b6000809054906101000a900473ffffffffffffffffffffffffffffffffffffffff1673ffffffffffffffffffffffffffffffffffffffff163373ffffffffffffffffffffffffffffffffffffffff1614610498576040517f08c379a00000000000000000000000000000000000000000000000000000000081526004018080602001828103825260158152602001807f43616c6c6572206973206e6f742063726561746f72000000000000000000000081525060200191505060405180910390fd5b6001600460006101000a81548160ff021916908315150217905550565b60055481565b60606000600460009054906101000a900460ff16610541576040517f08c379a00000000000000000000000000000000000000000000000000000000081526004018080602001828103825260178152602001807f566f74696e67206973207374696c6c2068617070696e6700000000000000000081525060200191505060405180910390fd5b6006600554818054600181600116156101000203166002900480601f0160208091040260200160405190810160405280929190818152602001828054600181600116156101000203166002900480156105db5780601f106105b0576101008083540402835291602001916105db565b820191906000526020600020905b8154815290600101906020018083116105be57829003601f168201915b50505050509150915091509091565b6000809054906101000a900473ffffffffffffffffffffffffffffffffffffffff1673ffffffffffffffffffffffffffffffffffffffff163373ffffffffffffffffffffffffffffffffffffffff16146106ac576040517f08c379a00000000000000000000000000000000000000000000000000000000081526004018080602001828103825260158152602001807f43616c6c6572206973206e6f742063726561746f72000000000000000000000081525060200191505060405180910390fd5b6000600460006101000a81548160ff021916908315150217905550565b60608060206040519080825280601f01601f1916602001820160405280156107005781602001600182028038833980820191505090505b509050600080905060008090505b60208110156107aa5760008160080260020a8660001c0260001b9050600060f81b817effffffffffffffffffffffffffffffffffffffffffffffffffffffffffffff19161461079c578084848151811061076457fe5b60200101907effffffffffffffffffffffffffffffffffffffffffffffffffffffffffffff1916908160001a90535082806001019350505b50808060010191505061070e565b506060816040519080825280601f01601f1916602001820160405280156107e05781602001600182028038833980820191505090505b50905060008090505b82811015610850578381815181106107fd57fe5b602001015160f81c60f81b82828151811061081457fe5b60200101907effffffffffffffffffffffffffffffffffffffffffffffffffffffffffffff1916908160001a90535080806001019150506107e9565b50809350505050919050565b600460009054906101000a900460ff161561087657600080fd5b600160003373ffffffffffffffffffffffffffffffffffffffff1673ffffffffffffffffffffffffffffffffffffffff16815260200190815260200160002060009054906101000a900460ff16156108cd57600080fd5b60018060003373ffffffffffffffffffffffffffffffffffffffff1673ffffffffffffffffffffffffffffffffffffffff16815260200190815260200160002060006101000a81548160ff021916908315150217905550606061092f826106c9565b90506003816040518082805190602001908083835b602083106109675780518252602082019150602081019050602083039250610944565b6001836020036101000a0380198251168184511680821785525050505050509050019150509081526020016040518091039020600081548092919060010191905055506005546003826040518082805190602001908083835b602083106109e357805182526020820191506020810190506020830392506109c0565b6001836020036101000a0380198251168184511680821785525050505050509050019150509081526020016040518091039020541115610aa5576003816040518082805190602001908083835b60208310610a535780518252602082019150602081019050602083039250610a30565b6001836020036101000a0380198251168184511680821785525050505050509050019150509081526020016040518091039020546005819055508060069080519060200190610aa3929190610d86565b505b5050565b60068054600181600116156101000203166002900480601f016020809104026020016040519081016040528092919081815260200182805460018160011615610100020316600290048015610b3f5780601f10610b1457610100808354040283529160200191610b3f565b820191906000526020600020905b815481529060010190602001808311610b2257829003601f168201915b505050505081565b600460009054906101000a900460ff1615610b6157600080fd5b600160003373ffffffffffffffffffffffffffffffffffffffff1673ffffffffffffffffffffffffffffffffffffffff16815260200190815260200160002060009054906101000a900460ff1615610bb857600080fd5b60018060003373ffffffffffffffffffffffffffffffffffffffff1673ffffffffffffffffffffffffffffffffffffffff16815260200190815260200160002060006101000a81548160ff0219169083151502179055506003816040518082805190602001908083835b60208310610c455780518252602082019150602081019050602083039250610c22565b6001836020036101000a0380198251168184511680821785525050505050509050019150509081526020016040518091039020600081548092919060010191905055506005546003826040518082805190602001908083835b60208310610cc15780518252602082019150602081019050602083039250610c9e565b6001836020036101000a0380198251168184511680821785525050505050509050019150509081526020016040518091039020541115610d83576003816040518082805190602001908083835b60208310610d315780518252602082019150602081019050602083039250610d0e565b6001836020036101000a0380198251168184511680821785525050505050509050019150509081526020016040518091039020546005819055508060069080519060200190610d81929190610d86565b505b50565b828054600181600116156101000203166002900490600052602060002090601f016020900481019282601f10610dc757805160ff1916838001178555610df5565b82800160010185558215610df5579182015b82811115610df4578251825591602001919060010190610dd9565b5b509050610e029190610e06565b5090565b610e2891905b80821115610e24576000816000905550600101610e0c565b5090565b9056fea265627a7a7231582091cb9b38ecb40cb5ae5d953b979af76095b1ceb9784574eee3729063d5bf216c64736f6c63430005100032",
  "source": "pragma solidity ^0.5.0;\n\ncontract VotingContract{\n    \n    address public creator;\n\n    // Record keeping variables\n    mapping(address => bool) private votingRecords;\n    mapping(bytes32 => string) private candidates;\n    mapping(string => uint) private scoreboard;\n\n    bool private voteEnded;\n\n    // Winner variables\n    uint public max_vote;\n    string public winner;\n\n    // Converting bytes32 to string\n    function bytes32ToString(bytes32 str) pure public returns (string memory) {\n        bytes memory bytesString = new bytes(32);\n        uint charCount = 0;\n        for (uint i = 0; i < 32; i++) {\n            byte char = byte(bytes32(uint(str) * 2 ** (8 * i)));\n            if (char != 0) {\n                bytesString[charCount] = char;\n                charCount++;\n            }\n        }   \n        bytes memory bytesStringTrimmed = new bytes(charCount);\n        for (uint j = 0; j < charCount; j++) {\n            bytesStringTrimmed[j] = bytesString[j];\n        }\n        return string(bytesStringTrimmed);\n    }\n\n    // Converting from string to bytes32: bytes32(str)\n\n    // Creating a new instance of voting from a list of names, since solidity does not support an array of string (because they are not treated as primitive types), we will get a list of bytes32 values as input, and then convert it manually.\n    constructor(bytes32[] memory _candidateList) public {\n        creator = msg.sender;\n\n        for(uint i = 0; i < _candidateList.length; i++) {\n            // Convert the byte32 value to string\n           \tstring memory candidate = bytes32ToString(_candidateList[i]);\n\n           \t// Initialize voting scorebard for each candidate \n           \tscoreboard[candidate] = 0;\n\t\t\t\n\t\t    // Initialize mapping\n\t\t\tcandidates[_candidateList[i]] = candidate;\n        }\n    }\n\n\n    // Voting function, each user can only vote once. This allows user to vote using candidate's bytes32 value\n    function vote(bytes32 _candidate) public {\n        // Requiring that vote is not ended\n        require(!voteEnded);\n        // Requiring that user has not yet voted\n        require(!votingRecords[msg.sender]);\n        \n        // Set user's voting status to voted\n        votingRecords[msg.sender] = true;\n\n        string memory candidate = bytes32ToString(_candidate);\n\n        // Increament the score for that candidate\n        scoreboard[candidate]++;\n\n        // Check if it is the one with highest vote\n        if (scoreboard[candidate] > max_vote) {\n            max_vote = scoreboard[candidate];\n            winner = candidate;\n        } \n    }\n\n    // Give user the option of voting with their string name\n    function vote(string memory _candidate) public {\n        // Requiring that vote is not ended\n        require(!voteEnded);\n        // Requiring that user has not yet voted\n        require(!votingRecords[msg.sender]);\n        \n        // Set user's voting status to voted\n        votingRecords[msg.sender] = true;\n\n        // Increament the score for that candidate\n        scoreboard[_candidate]++;\n\n        // Check if it is the one with highest vote\n        if (scoreboard[_candidate] > max_vote) {\n            max_vote = scoreboard[_candidate];\n            winner = _candidate;\n        } \n    }\n\n    // Close the voting, only can be called with the creator\n    modifier isOwner() {\n        require(msg.sender == creator, \"Caller is not creator\");\n        _;\n    }\n    function closeVote() public isOwner {\n        voteEnded = true;\n    }\n\n    // Reopen vote just in case close by mistake\n    function reopenVote() public isOwner {\n        voteEnded = false;\n    }\n\n    // See Winner and number of votes\n    function getWinner() view public returns(string memory, uint) {\n        // Check if voting has ended\n        require(voteEnded, \"Voting is still happing\");\n        return (winner, max_vote);\n    }\n\n}\n",
  "sourcePath": "/home/saccharide/git/playing-with-truffle/contracts/VotingContract.sol",
  "compiler": {
    "name": "solc",
    "version": "0.5.16+commit.9c3226ce.Emscripten.clang"
  },
  "schemaVersion": "3.0.23",
  "updatedAt": "2020-02-29T07:45:22.154Z",
  "networkType": "ethereum",
  "devdoc": {
    "methods": {}
  },
  "userdoc": {
    "methods": {}
  }
}