{
  "contractName": "VotingContract",
  "abi": [
    {
      "inputs": [
        {
          "internalType": "bytes32[]",
          "name": "_candidateList",
          "type": "bytes32[]"
        }
      ],
      "payable": false,
      "stateMutability": "nonpayable",
      "type": "constructor"
    },
    {
      "constant": true,
      "inputs": [],
      "name": "creator",
      "outputs": [
        {
          "internalType": "address",
          "name": "",
          "type": "address"
        }
      ],
      "payable": false,
      "stateMutability": "view",
      "type": "function"
    },
    {
      "constant": true,
      "inputs": [
        {
          "internalType": "bytes32",
          "name": "str",
          "type": "bytes32"
        }
      ],
      "name": "bytes32ToString",
      "outputs": [
        {
          "internalType": "string",
          "name": "",
          "type": "string"
        }
      ],
      "payable": false,
      "stateMutability": "pure",
      "type": "function"
    },
    {
      "constant": false,
      "inputs": [
        {
          "internalType": "bytes32",
          "name": "_candidate",
          "type": "bytes32"
        }
      ],
      "name": "vote",
      "outputs": [],
      "payable": false,
      "stateMutability": "nonpayable",
      "type": "function"
    },
    {
      "constant": false,
      "inputs": [
        {
          "internalType": "string",
          "name": "_candidate",
          "type": "string"
        }
      ],
      "name": "vote",
      "outputs": [],
      "payable": false,
      "stateMutability": "nonpayable",
      "type": "function"
    },
    {
      "constant": false,
      "inputs": [],
      "name": "closeVote",
      "outputs": [],
      "payable": false,
      "stateMutability": "nonpayable",
      "type": "function"
    },
    {
      "constant": false,
      "inputs": [],
      "name": "reopenVote",
      "outputs": [],
      "payable": false,
      "stateMutability": "nonpayable",
      "type": "function"
    },
    {
      "constant": true,
      "inputs": [],
      "name": "getWinner",
      "outputs": [
        {
          "internalType": "string",
          "name": "",
          "type": "string"
        },
        {
          "internalType": "uint256",
          "name": "",
          "type": "uint256"
        }
      ],
      "payable": false,
      "stateMutability": "view",
      "type": "function"
    },
    {
      "constant": true,
      "inputs": [],
      "name": "viewCandidates",
      "outputs": [
        {
          "internalType": "string",
          "name": "",
          "type": "string"
        }
      ],
      "payable": false,
      "stateMutability": "view",
      "type": "function"
    }
  ],
  "bytecode": "0x60806040523480156200001157600080fd5b50604051620014e9380380620014e9833981810160405260208110156200003757600080fd5b81019080805160405193929190846401000000008211156200005857600080fd5b838201915060208201858111156200006f57600080fd5b82518660208202830111640100000000821117156200008d57600080fd5b8083526020830192505050908051906020019060200280838360005b83811015620000c6578082015181840152602081019050620000a9565b50505050905001604052505050336000806101000a81548173ffffffffffffffffffffffffffffffffffffffff021916908373ffffffffffffffffffffffffffffffffffffffff16021790555060008090505b8151811015620002645760606200014a8383815181106200013657fe5b60200260200101516200026c60201b60201c565b905060006003826040518082805190602001908083835b6020831062000186578051825260208201915060208101905060208303925062000161565b6001836020036101000a0380198251168184511680821785525050505050509050019150509081526020016040518091039020819055508060026000858581518110620001cf57fe5b602002602001015181526020019081526020016000209080519060200190620001fa92919062000409565b50600460405180602001604052808381525090806001815401808255809150509060018203906000526020600020016000909192909190915060008201518160000190805190602001906200025192919062000490565b5050505050808060010191505062000119565b50506200053f565b60608060206040519080825280601f01601f191660200182016040528015620002a45781602001600182028038833980820191505090505b509050600080905060008090505b6020811015620003525760008160080260020a8660001c0260001b9050600060f81b817effffffffffffffffffffffffffffffffffffffffffffffffffffffffffffff1916146200034357808484815181106200030b57fe5b60200101907effffffffffffffffffffffffffffffffffffffffffffffffffffffffffffff1916908160001a90535082806001019350505b508080600101915050620002b2565b506060816040519080825280601f01601f191660200182016040528015620003895781602001600182028038833980820191505090505b50905060008090505b82811015620003fd57838181518110620003a857fe5b602001015160f81c60f81b828281518110620003c057fe5b60200101907effffffffffffffffffffffffffffffffffffffffffffffffffffffffffffff1916908160001a905350808060010191505062000392565b50809350505050919050565b828054600181600116156101000203166002900490600052602060002090601f016020900481019282601f106200044c57805160ff19168380011785556200047d565b828001600101855582156200047d579182015b828111156200047c5782518255916020019190600101906200045f565b5b5090506200048c919062000517565b5090565b828054600181600116156101000203166002900490600052602060002090601f016020900481019282601f10620004d357805160ff191683800117855562000504565b8280016001018555821562000504579182015b8281111562000503578251825591602001919060010190620004e6565b5b50905062000513919062000517565b5090565b6200053c91905b80821115620005385760008160009055506001016200051e565b5090565b90565b610f9a806200054f6000396000f3fe608060405234801561001057600080fd5b50600436106100885760003560e01c80639201de551161005b5780639201de5514610175578063a69beaba1461021c578063d30f11dd1461024a578063fc36e15b146102cd57610088565b806302d05d3f1461008d578063329d3346146100d75780638e7ea5b2146100e1578063910349ff1461016b575b600080fd5b610095610388565b604051808273ffffffffffffffffffffffffffffffffffffffff1673ffffffffffffffffffffffffffffffffffffffff16815260200191505060405180910390f35b6100df6103ad565b005b6100e961048c565b6040518080602001838152602001828103825284818151815260200191508051906020019080838360005b8381101561012f578082015181840152602081019050610114565b50505050905090810190601f16801561015c5780820380516001836020036101000a031916815260200191505b50935050505060405180910390f35b6101736105bb565b005b6101a16004803603602081101561018b57600080fd5b810190808035906020019092919050505061069a565b6040518080602001828103825283818151815260200191508051906020019080838360005b838110156101e15780820151818401526020810190506101c6565b50505050905090810190601f16801561020e5780820380516001836020036101000a031916815260200191505b509250505060405180910390f35b6102486004803603602081101561023257600080fd5b810190808035906020019092919050505061082d565b005b610252610a7a565b6040518080602001828103825283818151815260200191508051906020019080838360005b83811015610292578082015181840152602081019050610277565b50505050905090810190601f1680156102bf5780820380516001836020036101000a031916815260200191505b509250505060405180910390f35b610386600480360360208110156102e357600080fd5b810190808035906020019064010000000081111561030057600080fd5b82018360208201111561031257600080fd5b8035906020019184600183028401116401000000008311171561033457600080fd5b91908080601f016020809104026020016040519081016040528093929190818152602001838380828437600081840152601f19601f820116905080830192505050505050509192919290505050610bb9565b005b6000809054906101000a900473ffffffffffffffffffffffffffffffffffffffff1681565b6000809054906101000a900473ffffffffffffffffffffffffffffffffffffffff1673ffffffffffffffffffffffffffffffffffffffff163373ffffffffffffffffffffffffffffffffffffffff161461046f576040517f08c379a00000000000000000000000000000000000000000000000000000000081526004018080602001828103825260158152602001807f43616c6c6572206973206e6f742063726561746f72000000000000000000000081525060200191505060405180910390fd5b6001600560006101000a81548160ff021916908315150217905550565b60606000600560009054906101000a900460ff16610512576040517f08c379a00000000000000000000000000000000000000000000000000000000081526004018080602001828103825260178152602001807f566f74696e67206973207374696c6c2068617070696e6700000000000000000081525060200191505060405180910390fd5b6007600654818054600181600116156101000203166002900480601f0160208091040260200160405190810160405280929190818152602001828054600181600116156101000203166002900480156105ac5780601f10610581576101008083540402835291602001916105ac565b820191906000526020600020905b81548152906001019060200180831161058f57829003601f168201915b50505050509150915091509091565b6000809054906101000a900473ffffffffffffffffffffffffffffffffffffffff1673ffffffffffffffffffffffffffffffffffffffff163373ffffffffffffffffffffffffffffffffffffffff161461067d576040517f08c379a00000000000000000000000000000000000000000000000000000000081526004018080602001828103825260158152602001807f43616c6c6572206973206e6f742063726561746f72000000000000000000000081525060200191505060405180910390fd5b6000600560006101000a81548160ff021916908315150217905550565b60608060206040519080825280601f01601f1916602001820160405280156106d15781602001600182028038833980820191505090505b509050600080905060008090505b602081101561077b5760008160080260020a8660001c0260001b9050600060f81b817effffffffffffffffffffffffffffffffffffffffffffffffffffffffffffff19161461076d578084848151811061073557fe5b60200101907effffffffffffffffffffffffffffffffffffffffffffffffffffffffffffff1916908160001a90535082806001019350505b5080806001019150506106df565b506060816040519080825280601f01601f1916602001820160405280156107b15781602001600182028038833980820191505090505b50905060008090505b82811015610821578381815181106107ce57fe5b602001015160f81c60f81b8282815181106107e557fe5b60200101907effffffffffffffffffffffffffffffffffffffffffffffffffffffffffffff1916908160001a90535080806001019150506107ba565b50809350505050919050565b600560009054906101000a900460ff161561084757600080fd5b600160003373ffffffffffffffffffffffffffffffffffffffff1673ffffffffffffffffffffffffffffffffffffffff16815260200190815260200160002060009054906101000a900460ff161561089e57600080fd5b60018060003373ffffffffffffffffffffffffffffffffffffffff1673ffffffffffffffffffffffffffffffffffffffff16815260200190815260200160002060006101000a81548160ff02191690831515021790555060606109008261069a565b90506003816040518082805190602001908083835b602083106109385780518252602082019150602081019050602083039250610915565b6001836020036101000a0380198251168184511680821785525050505050509050019150509081526020016040518091039020600081548092919060010191905055506006546003826040518082805190602001908083835b602083106109b45780518252602082019150602081019050602083039250610991565b6001836020036101000a0380198251168184511680821785525050505050509050019150509081526020016040518091039020541115610a76576003816040518082805190602001908083835b60208310610a245780518252602082019150602081019050602083039250610a01565b6001836020036101000a0380198251168184511680821785525050505050509050019150509081526020016040518091039020546006819055508060079080519060200190610a74929190610ec0565b505b5050565b60608060405180602001604052806000815250905060008090505b600480549050811015610bb1576060610b9560048381548110610ab457fe5b906000526020600020016000018054600181600116156101000203166002900480601f016020809104026020016040519081016040528092919081815260200182805460018160011615610100020316600290048015610b555780601f10610b2a57610100808354040283529160200191610b55565b820191906000526020600020905b815481529060010190602001808311610b3857829003601f168201915b50505050506040518060400160405280600181526020017f0a00000000000000000000000000000000000000000000000000000000000000815250610df8565b9050610ba18382610df8565b9250508080600101915050610a95565b508091505090565b600560009054906101000a900460ff1615610bd357600080fd5b600160003373ffffffffffffffffffffffffffffffffffffffff1673ffffffffffffffffffffffffffffffffffffffff16815260200190815260200160002060009054906101000a900460ff1615610c2a57600080fd5b60018060003373ffffffffffffffffffffffffffffffffffffffff1673ffffffffffffffffffffffffffffffffffffffff16815260200190815260200160002060006101000a81548160ff0219169083151502179055506003816040518082805190602001908083835b60208310610cb75780518252602082019150602081019050602083039250610c94565b6001836020036101000a0380198251168184511680821785525050505050509050019150509081526020016040518091039020600081548092919060010191905055506006546003826040518082805190602001908083835b60208310610d335780518252602082019150602081019050602083039250610d10565b6001836020036101000a0380198251168184511680821785525050505050509050019150509081526020016040518091039020541115610df5576003816040518082805190602001908083835b60208310610da35780518252602082019150602081019050602083039250610d80565b6001836020036101000a0380198251168184511680821785525050505050509050019150509081526020016040518091039020546006819055508060079080519060200190610df3929190610ec0565b505b50565b606082826040516020018083805190602001908083835b60208310610e325780518252602082019150602081019050602083039250610e0f565b6001836020036101000a03801982511681845116808217855250505050505090500182805190602001908083835b60208310610e835780518252602082019150602081019050602083039250610e60565b6001836020036101000a03801982511681845116808217855250505050505090500192505050604051602081830303815290604052905092915050565b828054600181600116156101000203166002900490600052602060002090601f016020900481019282601f10610f0157805160ff1916838001178555610f2f565b82800160010185558215610f2f579182015b82811115610f2e578251825591602001919060010190610f13565b5b509050610f3c9190610f40565b5090565b610f6291905b80821115610f5e576000816000905550600101610f46565b5090565b9056fea265627a7a723158207d1a46d751d44d4dde844ccdbe9a779129770a89fbb15da11b39bb52489e9d6564736f6c63430005100032",
  "source": "pragma solidity ^0.5.0;\n\ncontract VotingContract{\n    \n    address public creator;\n\n    // Record keeping variables\n    mapping(address => bool) private votingRecords;\n    mapping(bytes32 => string) private candidates;\n    mapping(string => uint) private scoreboard;\n    \n    struct Candidate {\n        string name;\n    }\n    // list of candidates\n    Candidate[] Candidate_list;\n\n    bool private voteEnded;\n\n    // Winner variables\n    uint private max_vote;\n    string private winner;\n\n    // Converting bytes32 to string\n    function bytes32ToString(bytes32 str) pure public returns (string memory) {\n        bytes memory bytesString = new bytes(32);\n        uint charCount = 0;\n        for (uint i = 0; i < 32; i++) {\n            byte char = byte(bytes32(uint(str) * 2 ** (8 * i)));\n            if (char != 0) {\n                bytesString[charCount] = char;\n                charCount++;\n            }\n        }   \n        bytes memory bytesStringTrimmed = new bytes(charCount);\n        for (uint j = 0; j < charCount; j++) {\n            bytesStringTrimmed[j] = bytesString[j];\n        }\n        return string(bytesStringTrimmed);\n    }\n\n    // Converting from string to bytes32: bytes32(str)\n\n    // Creating a new instance of voting from a list of names, since solidity does not support an array of string (because they are not treated as primitive types), we will get a list of bytes32 values as input, and then convert it manually.\n    constructor(bytes32[] memory _candidateList) public {\n        creator = msg.sender;\n\n        for(uint i = 0; i < _candidateList.length; i++) {\n            // Convert the byte32 value to string\n           \tstring memory candidate = bytes32ToString(_candidateList[i]);\n\n           \t// Initialize voting scorebard for each candidate \n           \tscoreboard[candidate] = 0;\n\t\t\t\n\t\t    // Initialize mapping\n\t\t\tcandidates[_candidateList[i]] = candidate;\n\t\t\t\n\t\t\tCandidate_list.push(Candidate({name:candidate}));\n\t\t\t\n        }\n    }\n\n\n    // Voting function, each user can only vote once. This allows user to vote using candidate's bytes32 value\n    function vote(bytes32 _candidate) public {\n        // Requiring that vote is not ended\n        require(!voteEnded);\n        // Requiring that user has not yet voted\n        require(!votingRecords[msg.sender]);\n        \n        // Set user's voting status to voted\n        votingRecords[msg.sender] = true;\n\n        string memory candidate = bytes32ToString(_candidate);\n\n        // Increament the score for that candidate\n        scoreboard[candidate]++;\n\n        // Check if it is the one with highest vote\n        if (scoreboard[candidate] > max_vote) {\n            max_vote = scoreboard[candidate];\n            winner = candidate;\n        } \n    }\n\n    // Give user the option of voting with their string name\n    function vote(string memory _candidate) public {\n        // Requiring that vote is not ended\n        require(!voteEnded);\n        // Requiring that user has not yet voted\n        require(!votingRecords[msg.sender]);\n        \n        // Set user's voting status to voted\n        votingRecords[msg.sender] = true;\n\n        // Increament the score for that candidate\n        scoreboard[_candidate]++;\n\n        // Check if it is the one with highest vote\n        if (scoreboard[_candidate] > max_vote) {\n            max_vote = scoreboard[_candidate];\n            winner = _candidate;\n        } \n    }\n\n    // Close the voting, only can be called with the creator\n    modifier isOwner() {\n        require(msg.sender == creator, \"Caller is not creator\");\n        _;\n    }\n    function closeVote() public isOwner {\n        voteEnded = true;\n    }\n\n    // Reopen vote just in case close by mistake\n    function reopenVote() public isOwner {\n        voteEnded = false;\n    }\n\n    // See Winner and number of votes\n    function getWinner() view public returns(string memory, uint) {\n        // Check if voting has ended\n        require(voteEnded, \"Voting is still happing\");\n        return (winner, max_vote);\n    }\n    \n    // See current candidates\n    function viewCandidates() view public returns(string memory) {\n        \n        string memory result = \"\";\n        for (uint i = 0; i < Candidate_list.length; i++){\n            string memory temp = append(Candidate_list[i].name,\"\\n\");\n            result = append(result, temp);\n        }\n        return result;\n        \n    }\n    \n    // Concatenate strings\n    function append(string memory a, string memory b) internal pure returns (string memory) {\n\n        return string(abi.encodePacked(a, b));\n\n    }\n\n}\n\n",
  "sourcePath": "/home/saccharide/git/playing-with-truffle/contracts/VotingContract.sol",
  "compiler": {
    "name": "solc",
    "version": "0.5.16+commit.9c3226ce.Emscripten.clang"
  },
  "schemaVersion": "3.0.23",
  "updatedAt": "2020-04-02T23:48:21.725Z",
  "networkType": "ethereum",
  "devdoc": {
    "methods": {}
  },
  "userdoc": {
    "methods": {}
  }
}